{
  "contractName": "Meme",
  "abi": [
    {
      "constant": false,
      "inputs": [
        {
          "name": "_memeHash",
          "type": "string"
        }
      ],
      "name": "setMemeHash",
      "outputs": [],
      "payable": false,
      "stateMutability": "nonpayable",
      "type": "function"
    },
    {
      "constant": true,
      "inputs": [],
      "name": "getMemeHash",
      "outputs": [
        {
          "name": "",
          "type": "string"
        }
      ],
      "payable": false,
      "stateMutability": "view",
      "type": "function"
    }
  ],
  "bytecode": "0x608060405234801561001057600080fd5b50610336806100206000396000f3fe60806040526004361061004c576000357c0100000000000000000000000000000000000000000000000000000000900463ffffffff16806360ac40f014610051578063b1614610146100e1575b600080fd5b34801561005d57600080fd5b506100666101a9565b6040518080602001828103825283818151815260200191508051906020019080838360005b838110156100a657808201518184015260208101905061008b565b50505050905090810190601f1680156100d35780820380516001836020036101000a031916815260200191505b509250505060405180910390f35b3480156100ed57600080fd5b506101a76004803603602081101561010457600080fd5b810190808035906020019064010000000081111561012157600080fd5b82018360208201111561013357600080fd5b8035906020019184600183028401116401000000008311171561015557600080fd5b91908080601f016020809104026020016040519081016040528093929190818152602001838380828437600081840152601f19601f82011690508083019250505050505050919291929050505061024b565b005b606060008054600181600116156101000203166002900480601f0160208091040260200160405190810160405280929190818152602001828054600181600116156101000203166002900480156102415780601f1061021657610100808354040283529160200191610241565b820191906000526020600020905b81548152906001019060200180831161022457829003601f168201915b5050505050905090565b8060009080519060200190610261929190610265565b5050565b828054600181600116156101000203166002900490600052602060002090601f016020900481019282601f106102a657805160ff19168380011785556102d4565b828001600101855582156102d4579182015b828111156102d35782518255916020019190600101906102b8565b5b5090506102e191906102e5565b5090565b61030791905b808211156103035760008160009055506001016102eb565b5090565b9056fea165627a7a723058202f6b026d2c424b215bd25c547da87cfa6579053425da8b2c5447793f2f2bac9a0029",
  "source": "pragma solidity >=0.4.2 <0.8.0;\r\n\r\ncontract Meme {\r\n    string memeHash;\r\n\r\n    // constructor() {\r\n    //     memeHash = \"\",\r\n    // }\r\n    function setMemeHash(string memory _memeHash) public {\r\n        memeHash = _memeHash;\r\n    }\r\n    function getMemeHash() public view returns(string memory){\r\n        return memeHash;\r\n    }\r\n}",
  "sourcePath": "G:/Projects/Blockchain/meme/src/contracts/Meme.sol",
  "compiler": {
    "name": "solc",
    "version": "0.5.0+commit.1d4f565a.Emscripten.clang"
  },
  "schemaVersion": "3.0.2",
  "updatedAt": "2021-11-19T05:31:05.384Z",
  "devdoc": {
    "methods": {}
  },
  "userdoc": {
    "methods": {}
  }
}